:10000000E0350020811800007D1800007D180000F8
:1000100000000000000000000000000000000000E0
:10002000000000000000000000000000710300005C
:100030000000000000000000D90300001D040000C3
:100040007D1800007D1800007D1800007D1800005C
:100050007D1800007D1800007D1800007D1800004C
:100060007D180000510200006102000071020000D2
:100070008102000000000000000000007D18000068
:100080007D1800007D1800007D1800007D1800001C
:100090007D18000000000000000000007D18000036
:1000A0007D1800007D1800007D1800007D180000FC
:1000B00010B5064C2378002B07D1054B002B02D03E
:1000C000044800E000BF0123237010BD3804002065
:1000D000000000009025000008B5084B002B03D05D
:1000E0000748084900E000BF07480368002B03D019
:1000F000064B002B00D0984708BDC046000000000A
:10010000902500003C040020902500000000000025
:1001100070B50B4C0B4E351C236A1A0402D4802395
:100120005B02A361E1204000B047236A1A0402D4B5
:1001300080235B026361E1204000A847ECE7C046F2
:10014000004400410D11000070B50B4C0B4E351CE6
:10015000236A1A0402D480239B02A36196204000E4
:10016000B047236A1A0402D480239B02636196205D
:100170004000A847ECE7C046004400410D110000D4
:1001800070B50A4C0A4E351C236A1A0402D4802327
:10019000DB02A3610748B047236A1A0402D4802314
:1001A000DB0263610348A847EEE7C0460044004114
:1001B0000D11000026020000F0B587B01C4B9847D7
:1001C00004AD01276F700024AC702F701020291C23
:1001D000184EB0471220291CB0471120291CB047E7
:1001E00005A90C704F708C700F20B047124E03277A
:1001F00000970194029403941048311C8C22002330
:100200000F4DA84700970194029403940D48311CA8
:100210008C220023A84700970194029403940A4873
:10022000311C8C220023A847084B9847FEE7C046A4
:10023000A1200000352100009424000011010000DD
:10024000B10C00004901000081010000850E000092
:1002500008B5024B5B680020984708BD5404002095
:1002600008B5024B9B680120984708BD5404002044
:1002700008B5024BDB680220984708BD54040020F3
:1002800008B5024B1B690320984708BD54040020A1
:10029000031C08334360012252428260C360036141
:1002A000002303607047C046002303617047C046C7
:1002B00043684B609A688A609A68516099600861E7
:1002C000036801330360704730B50C68021C0832C4
:1002D000631C01D1026905E053681D68AC4201D37B
:1002E0001A1CF9E753684B6099608A605160086195
:1002F00003680133036030BD03694268816891601F
:100300008268416851605A68824201D192685A609D
:10031000002202611868013818607047034B1B689F
:10032000013301D072B6FEE772B6FEE7000000208E
:10033000064A13681868203080F30988022080F389
:1003400014883FBCAE4662B600BDC046B014002063
:1003500010B5031F802464041C60043B1960043B37
:1003600002491960143B1A60403810BD1D0300009B
:100370007047C04680225205034B1A60BFF34F8F6F
:10038000BFF36F8F7047C04604ED00E072B6044BB8
:100390001A6801321A60BFF34F8FBFF36F8F704737
:1003A00000000020064B1B68002B01D172B6FEE74F
:1003B000013B034A1360002B00D162B67047C04670
:1003C00000000020EFF3108072B670470020C04696
:1003D00080F310887047C046EFF309800E4B1A680F
:1003E00020381060F0C044464D4656465F46F0C087
:1003F00008B572B600F0F2FE62B60CBC116808686F
:100400001030F0C8A046A946B246BB4680F3098822
:100410002038F0C81847C046B014002010B5074B6C
:100420009847041C064B9847002803D080225205A9
:10043000044B1A60201C044B984710BDC5030000F4
:10044000150F000004ED00E0D10300000022044B72
:100450001A60044A044B1A600722044B1A60704762
:1004600018E000E07FBB000014E000E010E000E0D6
:1004700008B50A4B1968FF2212040A431A6019686A
:10048000FF2212060A431A60054B98470022054BCB
:100490001A60054B9847054B9847C04620ED00E091
:1004A0004D04000000000020310300001D03000087
:1004B00070B5041C2A4B98472A4B9B68002B10D11F
:1004C000284B1A1C143207218A431A6000255D60EC
:1004D000254926480861CD6050600C311160012229
:1004E0009A600025002C36D0211C0831480702D024
:1004F0000723994308314B1E00251D4A93422AD8F1
:10050000184C23685A68914205D91A68002A02D00B
:100510001C1C131CF6E7144A0C3293421AD02568AF
:1005200008351E6826605868421A102A0CD95818D7
:100530004260596044680B490A685668B44201D960
:10054000111CF9E7026008600A4A5B681068C31A68
:10055000136000E00025084B9847281C70BDC0467A
:10056000E50E00007004002070140020F80F000059
:10057000F60F0000040000202510000038B5041E0E
:1005800015D0051C083D0A4B98476968094A13684D
:100590005868814201D91A1CF9E7083C23601560AC
:1005A000054B626819688A181A60044B984738BD71
:1005B000E50E00007004002004000020251000005B
:1005C00038B5041C151C026C002A08D101680029EA
:1005D0002AD14068164B98470023636024E0002D21
:1005E0000CD18068134B9847A268216C5318A36004
:1005F0006268934218D32368A36015E0C0680D4B6E
:100600009847216C4A42E1688B18E36021688B426D
:1006100002D263689A18E260022D05D1A36B002B09
:1006200002D0A36B013BA363A36B0133A36338BD6B
:10063000B5140000F922000010B582B001900A1C28
:10064000C46C002C01D172B6FEE7A16BE36B99423A
:1006500001D372B6FEE7A16B00208B420DD9201C9E
:1006600001A9074B98470020636A002B05D0201C86
:100670002430044B9847431E984102B010BDC04639
:10068000C1050000F512000038B50468002C0CD03C
:10069000026CC568AB18C3604568AB4200D3C46048
:1006A000C368081C191C014B984738BDF92200008B
:1006B000F8B5041C234B9847A36C002B1CDD224E7D
:1006C000224DE36C002B07D0201C0021A8470128F5
:1006D0000CD11F4B984709E0636A002B0CD0201CFB
:1006E0002430B047002801D0194B9847A36C013B38
:1006F000A364A36C002BE4DC01235B42A364154BD1
:100700009847104B9847636C002B15DD2369002B2D
:1007100012D0271C10370C4E0D4D02E02369002B20
:100720000AD0381CB047002800D0A847636C013BB2
:100730006364636C002BF1DC01235B426364054B53
:100740009847F8BD8D030000F5120000390600003F
:1007500001140000A503000038B5041C0D1C00287E
:1007600001D172B6FEE7154B98472368226CE06B07
:100770005043191861600021A163A360821A9B187D
:10078000E36001235B426364A364002D0BD1216904
:1007900000290FD0201C1030094B9847012809D19F
:1007A000084B984706E0201C1030074DA847201C36
:1007B0002430A847054B9847012038BD8D03000021
:1007C000F51200007503000091020000A50300006F
:1007D00070B5051C0E1C002811D050200E4B9847F8
:1007E000041E0CD0301C684301300B4B984720602E
:1007F000002806D1201C094B984700E0FEE772B69E
:10080000FCE7E5632664201C0121054B9847002383
:10081000E364201C70BDC046B10400007D050000EB
:1008200059070000F0B557464E464546E0B484B03F
:10083000041C0E1C01921D1C002801D172B6FEE79B
:10084000002904D1026C002A01D072B6FEE7022D05
:1008500004D1E36B012B01D072B6FEE7414B984700
:10086000002802D1019A002A03D100273E4B984666
:1008700001E072B6FEE7C047A36BE26B934201D37F
:10088000022D1FD1201C311C2A1C384B9847E36CC9
:10089000002B08D0201C291C354B984701280DD16E
:1008A000344B98470AE0626A002A07D0201C2430A3
:1008B000314B9847012801D12E4B98472F4B984731
:1008C000012049E0019B002B03D12C4B98470020CD
:1008D00042E0002F03D102A8294A90470127274B65
:1008E0009847284B9847204B9847636C013301D1B8
:1008F00000236364A36C013301D10023A3641F4B65
:10090000984702A801A9204B984700281ED1164BF2
:100910009847A26B9246E36B9946184B9847CA4595
:100920000ED1201C10300199184B9847201C184BF1
:100930009847184B984700289DD10E4B98479AE747
:10094000201C134B9847134B984794E7201C104BDF
:100950009847104B9847002004B01CBC904699461D
:10096000A246F0BD191400008D030000C10500006F
:100970003906000075030000F5120000A503000011
:1009800071130000E50E0000911300006D120000CD
:10099000B106000025100000F0B5474680B4041CE5
:1009A0008846161C1D1C002801D172B6FEE70029DE
:1009B00004D1036C002B01D072B6FEE7022D33D1B7
:1009C000E26B012A39D072B6FEE7201C41462A1C90
:1009D000204B9847A36C01331DD1E36C002B0BD047
:1009E000201C291C1C4B9847012501282AD1002EC8
:1009F00016D00123336025E00125626A002A21D048
:100A0000201C2430154B984700281BD0002E09D0FD
:100A10000123336016E0A36C0133A364012511E0C8
:100A200001250FE001250DE00D4B9847071CA36B36
:100A3000E26B9342C9D3002504E0094B9847071C99
:100A4000A36BC2E7381C074B9847281C04BC904690
:100A5000F0BDC046C105000039060000F5120000D7
:100A6000C5030000D1030000F0B54F464646C0B4B0
:100A700085B0041C0D1C01921F1C002801D172B608
:100A8000FEE7002904D1036C002B01D072B6FEE70B
:100A90004A4B9847002802D1019B002B03D1002626
:100AA000474B984601E072B6FEE7C047A36B002BA8
:100AB0002BD0E668201C291C424B9847002F14D1EC
:100AC000A36B013BA3632368002B02D13E4B9847E5
:100AD00060602369002B14D0201C10303B4B9847DA
:100AE00001280ED13A4B98470BE0E660636A002B71
:100AF00007D0201C2430354B9847002801D0344BB8
:100B00009847344B9847012052E0019B002B03D1BA
:100B1000304B984700204BE0002E03D102A82E4B0B
:100B2000984701262B4B98472C4B9847244B9847C6
:100B3000636C013301D100236364A36C013301D1E1
:100B40000023A364234B984702A801A9244B98478C
:100B5000002827D11A4B9847A36B99461D4B9847FD
:100B60004B46002B18D12368002B06D1144B984715
:100B700060681C4B9847174B9847201C24300199FC
:100B8000194B9847201C194B9847194B9847002838
:100B90008BD10F4B984788E7201C144B9847144B78
:100BA000984782E7201C114B9847114B984700202B
:100BB00005B00CBC90469946F0BDC0461914000023
:100BC0008D030000890600000D140000F5120000DE
:100BD00075030000A503000071130000E50E00007E
:100BE00091130000351400006D120000B1060000E2
:100BF0002510000038B5041C0D1C0D4B9847636C84
:100C0000013301D100236364A36C013301D10023BC
:100C1000A364084B9847A36B002B04D1201C2430FD
:100C2000291C054B9847201C044B984738BDC046EB
:100C30008D030000A5030000BD120000B1060000F6
:100C4000084B9B6A1B68002B04D101225242064BC1
:100C50001A6006E0034B9B6ADB68DB685A68024B4C
:100C60001A607047841400200800002010B5041C8E
:100C70000C4BDA6A50601B6B984206D2094B586BDA
:100C8000D96A0431084B98470BE0064B986AD96A39
:100C90000431054B9847054B1B689C4201D2034B1E
:100CA0001C6010BD84140020C90200000800002050
:100CB000F8B55F4656464D464446F0B4071C0E1C38
:100CC00091469A460A9D002801D172B6FEE7042D8E
:100CD00001D972B6FEE740205E4B9847041E00D152
:100CE000B0E00C9A002A00D098E04B469800594B8F
:100CF00098472063002800D092E0201C564B98476C
:100D0000A0E0F15CE21834321170F25C002A02D0EB
:100D10000133082BF5D100223B23E2542E1E042E72
:100D200000D90426E662E663221D9046101C4B4B58
:100D300099469847201C1830C847246105239E1BFC
:100D4000A66164625846391C5246454B984720605C
:100D50000B9A002A00D01460424B9847424B9A6B82
:100D600001329A63DB6A002B2AD13F4BDC629B6B1A
:100D7000012B30D13C4B1E1C3C36A03399463B4FD7
:100D8000301CB84714364E45FAD1394B99462022CB
:100D90009346CB445846354EB04734239A46CA440E
:100DA0005046B047304F381C1430B04748464830A2
:100DB000B047381CB0475A46BA6253467B630AE0D4
:100DC0002B4BDB6D002B06D1274BDB6ADB6A9D4288
:100DD00001D3254BDC62264A136E01331366E36AA6
:100DE000526E934201D9224A53669A00D3189B004F
:100DF0001D483C30C01841461E4B98471E4B984733
:100E00001B4BDB6D0120002B1ED0174BDB6ADB6A0E
:100E10009D4219D9194B9847012015E00C9A02639D
:100E2000174A131C4B449B00226BD3180722934391
:100E30009B4632783423E2543378002B00D16AE7A2
:100E400001235EE7012040423CBC90469946A24601
:100E5000AB46F8BDB10400007D050000A90200000A
:100E6000510300008D030000841400209102000053
:100E700004150020B1020000A50300007503000066
:100E8000FFFFFF3F10B584B000230093019302934E
:100E900003930D480D498C220D4CA04701280DD11C
:100EA0000C4B9847012809D172B601220A4BDA652A
:100EB00000220A4B1A630A4B984703E0002801D12D
:100EC00072B6FEE704B010BD611100009C24000062
:100ED000B10C0000A91500000415002084140020A6
:100EE00071040000024BDA6E0132DA667047C046C8
:100EF0000415002010B5044B9847044B1C6B044BA1
:100F00009847201C10BDC0468D03000084140020AB
:100F1000A5030000F8B557464E46C0B43B4BDB6E08
:100F2000002B62D13A4B1A6B01321A631F6B002FF0
:100F300010D19B6A1B68002B01D072B6FEE7344BC0
:100F40009A6A596B99625A63304B1A6F01321A6769
:100F5000304B9847304B1B6800249F423AD32C4AB1
:100F6000924691463C23994400E001245246936AFC
:100F70001B68002B04D101225242274B1A6029E042
:100F8000234B9B6ADB68DD686B689F4202D2224A72
:100F900013601FE02E1D301C204B9847AB6A002BBE
:100FA00003D0281C18301D4B9847EB6A174A526E25
:100FB000934201D9154A53669800C01880004844EE
:100FC000311C174B9847124AD36AEA6ADB6A9A4285
:100FD000CBD2CBE70E4BDA6AD26A91008A18920024
:100FE0009B18DB6B012B06D806E0084B5A6F0132C9
:100FF0005A67002400E00124044B9B6F002B00D0B3
:101000000124201C0CBC91469A46F8BD0415002012
:1010100084140020410C000008000020F9020000A8
:10102000B1020000F0B5474680B4304BDB6E002BB8
:1010300001D172B6FEE72E4B98472C4BDA6E013A7F
:10104000DA66DB6E0024002B4AD12A4B9B6B002B07
:1010500046D0284DA8463C22904420E0254B1B6AF0
:10106000DC68201C1830244FB847261D301CB847B8
:10107000E36A1E4A526E934201D91C4A5366980095
:10108000C01880004044311C1C4B9847194AD36A51
:10109000E26ADB6A9A4202D30122144B9A676B69B7
:1010A000002BDBD1114B5B6F002B11D00F4B5B6F13
:1010B000002B0DD0124E0D4D2C1CB047002801D036
:1010C0000123AB67636F013B6367636F002BF4D150
:1010D000064B9B6F0024012B02D10A4B9847012439
:1010E000094B9847201C04BC9046F0BD0415002015
:1010F0008D03000084140020F9020000B1020000FA
:10110000150F000075030000A503000010B5041EB4
:1011100015D00C4BDB6E002B01D072B6FEE70A4BEC
:1011200098470A4B1A6BA418D86A0430084B9847A2
:10113000201C084B9847084B9847002801D1074BC3
:10114000984710BD04150020E50E0000841400200F
:10115000F90200006D0C000025100000750300006E
:10116000F8B5154E154F1DE0154B9847124B9C6C6A
:10117000144B9847002C15D0134B98470E4D6B6DB0
:10118000DC68201D114B98470C4B9A6B013A9A630F
:10119000AB6E013BAB660E4B9847206B0D4DA847DD
:1011A000201CA847B36E002BDED1FB6B012BF9D9B5
:1011B000094B9847F6E7C046041500208414002028
:1011C000E50E0000251000008D030000F90200006C
:1011D000A50300007D0500007503000010B5214B3C
:1011E000DB6E002B03D001221E4B9A6738E01D4BAB
:1011F00000229A675B6E9A00D3189B001A4AD31894
:10120000DB6B002B17D1174B5B6E002B05D102E077
:10121000426E002A04D172B6FEE7124B124C181C23
:101220005A6E013A5A665A6E91008A189200A218B4
:10123000D26B002AECD00B4B5B6E9A00D3189B004C
:10124000094A3C32D3185A6852685A60191C08314E
:101250008A4201D152685A605B68DA68024BDA62EE
:1012600010BDC046041500208414002038B50C1CA5
:10127000002801D172B6FEE70B4DE96A18310B4B1D
:101280009847E86A04300A4B9847631C05D1064822
:10129000C16A0431074B984704E0034B186B2018D0
:1012A000054B984738BDC04684140020C902000091
:1012B000F9020000B10200006D0C000038B50D1CF1
:1012C000002801D172B6FEE7064CE16A1831064BE0
:1012D0009847E06A0430054B9847206B2818044B68
:1012E000984738BD84140020B1020000F9020000C4
:1012F0006D0C000038B5C368DC68002C01D172B6F3
:10130000FEE7251C1835281C154B9847154BDB6E3E
:10131000002B14D1251D281C114B9847E36A114A54
:10132000526E934201D90F4A53669A00D3189B001C
:101330000D483C30C018291C0C4B984704E00A4863
:101340001430291C094B9847074BDB6AE26ADB6AB9
:1013500000209A4203D90122024B9A67012038BD2E
:10136000F90200000415002084140020B1020000DE
:10137000002801D172B6FEE7034B1B6F0360034BDD
:101380001B6B43607047C046041500208414002086
:1013900070B5041C0E1C002801D172B6FEE70029AE
:1013A00001D172B6FEE7114B9847114B1A6B3368A7
:1013B000581C15D00F49096F2068884203D00125B9
:1013C00061688A420DD26168501A0125834208D9AA
:1013D0008A1AD3183360201C074B9847002500E079
:1013E0000025064B9847281C70BDC0468D030000A1
:1013F000841400200415002071130000A5030000D0
:101400000122014B9A67704704150020014BD86AEE
:101410007047C04684140020054BDB6D0120002B73
:1014200004D0034BD86E4342584140007047C04639
:101430000415002038B5041E33D0C36A194AD26A95
:10144000D26A93422DD28269002A05DB154AD26AFC
:10145000D26A05218A1A82619A00D3189B00114A28
:101460003C32D31862699A4217D1251D281C0E4BB5
:1014700098470C4BDB6ADB6AE3620C4A526E93427C
:1014800001D90A4A53669800C3189B0005483C30AE
:10149000C018291C064B984703E0024BDB6ADB6A45
:1014A000E36238BD84140020F90200000415002016
:1014B000B102000038B5041E1ED0C26AC36B9A4246
:1014C0001AD0051D281C0D4B9847E36BE362A269F7
:1014D000002A02DB0522D21AA261094A526E934207
:1014E00001D9074A53669800C3189B0005483C3051
:1014F000C018291C044B984738BDC046F9020000AB
:101500000415002084140020B102000010B5041C52
:101510004160206191420BD8D21A0120A3699A42FE
:1015200011D2094B1868211D084B984700200AE08A
:101530009A4202D20120994205D2034B5868211DDC
:10154000024B9847002010BD80150020C902000002
:10155000F8B5104B9847104B9B68002B17D10E4CD9
:10156000261C0C36301C0D4FB847251C2035281C76
:10157000B8476660256002200C210022084B98477E
:10158000002802D0044B986001E072B6FEE7054BDC
:101590009847F8BD8D0300008015002091020000DF
:1015A000D1070000A503000010B584B00B4B98478D
:1015B0000B4B9B68002B0CD002230093002301935C
:1015C00002930393074808495022084CA04700287B
:1015D00001D172B6FEE704B010BDC046511500003F
:1015E0008015002009170000CC240000B10C000079
:1015F00010B584B0134CA468002C1FD00191029246
:101600000390052913DC104B9847022807D10D4B96
:10161000986801A9069A00230C4CA0470FE0094BDB
:10162000986801A900220023084CA04707E0201C6D
:1016300001A91A1C0023064CA04700E0002004B0BA
:1016400010BDC046801500201914000025080000B8
:1016500099090000F0B557464E464546E0B482B0C1
:101660008146244B98478046234B5B6B984233D28C
:10167000214E224F24E0DB6819688A46DC68251D6C
:10168000281CB847201C626A9047E369012B17D1D8
:10169000A1690B1C5344534507D963602461164B61
:1016A0005868291C164B98470AE000230093201C19
:1016B00000215246134CA047002801D172B6FEE724
:1016C000736819680029D6D10B4A146854601360F6
:1016D000012349460B6002E000234A461360064B93
:1016E00044465C63404602B01CBC90469946A24604
:1016F000F0BDC046F50E000080150020F902000084
:10170000C9020000F1150000F0B5474680B486B06C
:101710004E48804641464B681A68002A00D18AE04C
:10172000DB681C684A4B984703A84A4B9847051C3E
:10173000039B002B31D1844223D8474B9847434B1E
:101740005B68DB68DE68301D444B9847F769012F02
:1017500013D1B0692118301C2A1C231C404DA84706
:1017600001280AD100230093301C0021221C3D4C8B
:10177000A047002801D172B6FEE7736A301C984773
:101780000DE0324B9868611B374B9847324B9847B6
:10179000002804D1354B984701E02F4B98472B4D3B
:1017A000334C40E0039900293DDB059E7269002A15
:1017B00002D0301D294B984702A8264B9847031C9E
:1017C000039F092F2FD8BA002A498A589746049FA9
:1017D000B269B918301C1A1C3B1C214FB8470128AC
:1017E00021D1301C716A8847F269012A1BD1B36983
:1017F000049FDA1900230093301C0021194EB047D2
:10180000002810D172B6FEE70499B161002901D118
:1018100072B6FEE75918301C1A1C114EB04702E090
:10182000301C154B9847A86803A900220023A04745
:101830000028B7D16EE70648804703A805498847C6
:10184000051C0024039AA2429BD0A6E78015002025
:10185000E50E00005516000025100000F9020000FA
:101860000D150000F1150000F50B000075030000D8
:10187000690A0000A42400007D050000FEE7C046C0
:1018800070B52C4B2C4A9A4203D02C4B294A9A42D1
:1018900004D32B4B2B4A9A4210D31BE02A4B2748E8
:1018A0000330C01A80080130800000232149224AF9
:1018B000D458CC5004338342FAD1EAE7214B1A1DA5
:1018C0001F490331891A890889005218002102C36F
:1018D0009342FCD11D4BFF211D4A8A439A6002218D
:1018E00090235B001B4AD1501B4BD87803218843BF
:1018F00002221043D870DD780C24A543082005434C
:10190000DD70164B9E7B3025AE43202535439D73FD
:101910009D7BA54328439873987B884302439A7321
:101920000F4B596880220A435A600E4B98470E4B62
:101930009847FEE7000000209025000038040020B2
:10194000E0150020380400200400002000ED00E035
:1019500000000000007000410050004100480041BC
:1019600000400041B1220000B901000008B508287C
:1019700034D880001B4B1B589F468020000230E06B
:10198000194B18692DE0194B186A8005800F184B08
:10199000C340181C25E0144B586922E0124B1B6809
:1019A000022018401DD011491022CB681A42FCD0E9
:1019B0000D4B1B685A0713D500200E4B98470A4B56
:1019C0009B681B041B0C58430BE05023074AD35C55
:1019D00000205A0705D5044BD86802E0002000E03B
:1019E000054808BDD4240000B815002000080040B8
:1019F00000127A0069200000006CDC0270B50C4B0C
:101A00001C6A0178857840780122104080014026C8
:101A1000B44304432A40D00180229443221C024351
:101A2000032001400902034802400A431A6270BDC4
:101A300000080040FFFCFFFFF0B55F4656464D46EC
:101A40004446F0B4254A948A45780378594259416E
:101A50008A4683789C46C178884603799946467BB6
:101A6000077B817B8B4680681D4B58610123514663
:101A7000880004218C43044348461840C0000821D4
:101A80008C43044340461840000110218C4304431A
:101A900060461840400120218C430443181C384004
:101AA00080014027BC430443181C3040C0018026FD
:101AB000B44304430720284000020A4D2C4004434D
:101AC00059460B4019030848231C03400B439382DB
:101AD0003CBC90469946A246AB46F0BD000800408B
:101AE000B8150020FFF8FFFFFFEFFFFFF8B5041C5B
:101AF000C568037D012B06D1018A01314900281CEC
:101B00001E4B9847051CA3681801291C1B4B9847BE
:101B10000F22024000096678B6012378DB011E43DC
:101B2000F6B2174B44215E541604411E0905090DF7
:101B300031439964E678F600A178090331432679A8
:101B4000B6003143A67C03273E403143268A360443
:101B50000C4F3E403143E77C3F02E026F6003E401A
:101B60003143247D2401302634402143D9640001CF
:101B7000121855432D09044BDD60F8BD11220000F9
:101B8000000800400000FF07B8150020082849D8C9
:101B90008000254B1B589F46002044E0234B196AC8
:101BA00002220A431A6200203DE0204B996902227A
:101BB0000A439A61002036E01C4B198A02220A432C
:101BC0001A8200202FE0194B998A02220A439A8236
:101BD000002028E0164A1168022319431160134AB5
:101BE0009384111C1022CB681A42FCD0104A9168D1
:101BF0000E4BD96252689A6200229A84191C1022F4
:101C0000CB681A42FCD00A4B1A6892B2074B9A84EE
:101C1000002008E0054A4423D05C02210143D1544E
:101C2000002000E017207047F82400000008004062
:101C3000B8150020082832D880001A4B1B589F4640
:101C4000194B1A6A02218A431A62002028E0164BB7
:101C50009A6902218A439A61002021E0124B1A8A74
:101C600002218A431A8200201AE00F4B9A8A02212D
:101C70008A439A82002013E00C4B1A6802218A439F
:101C80001A601A6892B2084B9A84002008E0064A4B
:101C90004423D15C02208143D154002000E017206E
:101CA0007047C0461C25000000080040B815002001
:101CB000082820D88000114B1B589F4601201BE0AC
:101CC000012310E002230EE010230CE050230C4A05
:101CD000D05C03231840033843425841C0B20BE0A4
:101CE000082300E00423064AD0681840C01A434283
:101CF0005841C0B200E000207047C04640250000B7
:101D00000008004070B58EB0C222D200424B9A60EB
:101D1000424A51681E2399430223194351606A467F
:101D2000137000243E4DE0B26946A8470134252CCB
:101D3000F9D10AA800230370837080221202826006
:101D4000C3700122027103738373062242704373CE
:101D5000344B98470520344B98472F490222CB68D3
:101D60001A42FCD02C4B998A80220A439A8209A8F5
:101D7000002444700125857004702C4B9847062080
:101D8000294EB0472A4B984701956B465C701C72F0
:101D90005C7204236A46137001206946254B9847FC
:101DA0000120254B984703A844708470C4700471C7
:101DB000224B836080231B02C36005820475C474B8
:101DC000847404701E4B98470820B0471248502175
:101DD0000322435C1340032BFBD10F4A4423D05C06
:101DE000802149420143D154164A00231372537291
:101DF0009372D372012201926A4653701372537226
:101E000008231370002069460A4B984700200A4BAC
:101E100098470EB070BDC046000800400040004129
:101E20004D200000391A00008D1B0000FD19000034
:101E3000491E00006D1E0000211F0000006CDC0226
:101E4000ED1A000000040040064B996908220A437D
:101E50009A610122044B1A70191C0B781342FCD1B1
:101E60007047C04600040040000C0040F8B5061C56
:101E7000071C0D782D0205434B78002B02D08023E0
:101E8000DB021D434B7A002B02D080231B031D4332
:101E90004C68012C17D9631E1C420FD1022C06D9A5
:101EA0000223002201325B009C42FBD800E00022AA
:101EB0001702374380235B031D4304E027023743A7
:101EC00080239B021D430B7A002B02D080239B03AF
:101ED0001D430F4A53785BB2002BFBDB0D4B984739
:101EE0000D4B1E700A4A53785BB2002BFBDB084B8C
:101EF0009F601A1C53785BB2002BFBDB044B5968C4
:101F0000802252020A4015435D60044B9847F8BD99
:101F1000000C0040CD200000080C0040092100000A
:101F200010B5041C0B4A53785BB2002BFBDB0A4B49
:101F300098470A4B1C70074A53785BB2002BFBDBB7
:101F4000044B5968802252020A435A60044B984756
:101F500010BDC046000C0040CD200000040C004025
:101F60000921000070B5041C1A4A53785BB2002B9B
:101F7000FBDB194B9847194B1C70164A53785BB220
:101F8000002BFBDB134E7068C004C00E144B984747
:101F9000051C124B1C707668F602F60F114B1C7074
:101FA0000C4A53785BB2002BFBDB0A4B9C68240A7B
:101FB000A4B20D4B9847002E07D1012C07D9281C3D
:101FC000211C0A4B9847051C01E00134E540281C00
:101FD00070BDC046000C0040CD200000040C004045
:101FE0006D190000080C00400921000011220000BA
:101FF00010B5041C0F4B98470F4B1C700F4B5888A3
:102000000005000F59880E4A0A405A8059880D4A27
:102010000A405A80191C8022D2014B881342FCD1FD
:10202000064B01025888064A02400A435A80064B72
:10203000984710BDCD200000020C0040000C00406D
:10204000FFF0FFFFFFBFFFFF0921000010B50C7874
:1020500024020443024B9847A4B2024B5C8010BD9B
:10206000F11F0000000C004010B5041C064B9847FF
:10207000064B1C70064B5C882405240F054B9847C3
:10208000201C054B984710BDCD200000020C0040DD
:10209000000C004009210000651F00007047C04689
:1020A00008B5054B9847054B9847054B9847054B96
:1020B0009847054B984708BD051D00009D2000006E
:1020C0009D2000009D2000009D2000000C4B1B68FF
:1020D000002B10D1EFF31083002B09D172B6BFF3A0
:1020E0005F8F0022074B1A700122054B1A7102E024
:1020F0000022034B1A71024B1A6801321A607047B2
:10210000D81500200C000020084B1A68013A1A600C
:102110001B68002B09D1054B1B79002B05D0012230
:10212000034B1A70BFF35F8F62B67047D81500205B
:102130000C00002000B583B001AB80221A700A7831
:102140005A704A789A708A78DA70191C014B98474D
:1021500003B000BDE521000030B5D378002B1ED1BF
:102160001378802B04D01B0680246402234300E0F4
:10217000002354780225AC430AD19478002C03D173
:102180008024A402234302E0C024E40223434160EC
:102190005478013C012C04D8114C234001E04160EB
:1021A00000230D042D0CA024E4052C431C43846261
:1021B0000D0CD02424062C431C438462D478002CBC
:1021C0000CD15C0305D59378012B01D1816100E02E
:1021D00041615378013B012B00D8816030BDC0467E
:1021E000FFFFFBFF08B5031C0A1CC10900200029E2
:1021F00003D15809C001044940181F210B40012197
:102200009940024B984708BD004400415921000005
:10221000002934D00123002210B488422CD3012499
:102220002407A14204D2814202D209011B01F8E72E
:10223000E400A14204D2814202D249005B00F8E7E7
:10224000884201D3401A1A434C08A04202D3001B13
:102250005C0822438C08A04202D3001B9C08224346
:10226000CC08A04202D3001BDC082243002803D084
:102270001B0901D00909E3E7101C10BC70470028B6
:1022800001D00020C04307B4024802A140180290C8
:1022900003BDC046190000000029F0D003B5FFF7C8
:1022A000B9FF0EBC4243891A1847C0467047C04662
:1022B00070B50D4E0D4D0024AD1BAD1005D0A30023
:1022C000F35801349847A542F9D100F04FF9084E70
:1022D000084D0024AD1BAD1005D0A300F358013408
:1022E0009847A542F9D170BD7825000078250000F7
:1022F0007825000080250000F0B50F2A35D9031C91
:102300000B439C0735D1161C103E36093501451983
:1023100010350C1C031C27681F6067685F60A76886
:102320009F60E7681034DF601033AB42F3D1731C59
:102330001B01C518C9180F231340032B1BD91C1FE1
:10234000A4080134A4000023CE58EE500433A34265
:10235000FAD1ED18C91803231A4005D00023CC5C2C
:10236000EC5401339342FAD1F0BD051C002AF5D19B
:10237000FAE7051CF2E71A1CF8E7C04608B5034B5C
:10238000002B02D0024800F005F808BD0000000054
:10239000A523000008B5011C00220020002300F046
:1023A00019F808BD38B5094B094DED1AAD1009D023
:1023B000013DAC00E41800E0013D23689847043C6F
:1023C000002DF9D100F0DCF838BDC0468C250000A6
:1023D00090250000F0B54F464646C0B498462B4BBA
:1023E000A4251B686D005C5983B0061C0F1C914628
:1023F0000193002C44D065681F2D1ADD244B002B5F
:1024000002D1012040421CE0C820400000E000BF93
:10241000041EF6D000254560A42301985B00C05837
:1024200001992060CC50C4235B00E550C6235B00BB
:10243000E550002E0AD16B1C0235AD006360002010
:102440002F5103B00CBC90469946F0BDAB00E31889
:10245000882248469850C420400022181068012164
:10246000A940084310608422520040469850022E32
:10247000E1D1C6225200A318186801431960DAE7B7
:102480001C1C4D34FF345C51B5E7C0466825000084
:1024900000000000497244410000000049444C45DE
:1024A00000000000CE170000CE170000CE1700007D
:1024B000261800000818000020180000CE170000A1
:1024C000CE1700002618000008180000546D722076
:1024D0005376630080190000DC190000DC1900004D
:1024E0007A1900007A190000961900008619000078
:1024F0009C190000CA190000B81B0000241C000031
:10250000241C0000981B0000AA1B0000C61B000032
:102510009C1B0000D41B0000141C00005C1C00006D
:102520009E1C00009E1C00009E1C00004E1C000013
:102530006A1C0000401C0000781C00008E1C00007B
:10254000C01C0000F61C0000F61C0000BC1C0000B3
:10255000E41C0000C41C0000E01C0000C81C0000BB
:10256000CC1C00004300000010000020F8B5C0465D
:10257000F8BC08BC9E4670477D230000D9000000CF
:10258000F8B5C046F8BC08BC9E467047B1000000D4
:10259000AAAAAAAAF80F0000FFFFFFFF010000008F
:1025A00000000000FC02002064030020CC03002097
:1025B000000000000000000000000000000000001B
:1025C000000000000000000000000000000000000B
:1025D0000000000064250000000000000000000072
:1025E00000000000000000000000000000000000EB
:1025F00000000000000000000000000000000000DB
:1026000000000000000000000000000000000000CA
:1026100000000000000000000000000000000000BA
:1026200000000000000000000000000000000000AA
:10263000000000000000000000000000000000009A
:102640000000000000000000010000000000000089
:102650000E33CDAB34126DE6ECDE05000B0000004E
:10266000000000000000000000000000000000006A
:10267000000000000000000000000000000000005A
:10268000000000000000000000000000000000004A
:10269000000000000000000000000000000000003A
:00000001FF
